:020000041000EA
:1000000000B5324B212058609868022188439860DF
:10001000D860186158612E4B002199600221596106
:100020000121F02299502B49196001219960352056
:1000300000F044F80222904214D00621196600F024
:1000400034F8196E01211966002018661A6600F04E
:100050002CF8196E196E196E052000F02FF8012189
:100060000842F9D1002199601B49196000215960AB
:100070001A491B48016001219960EB211966A021F2
:10008000196600F012F800219960164914480160C1
:100090000121996001BC002800D000471248134993
:1000A000086003C880F30888084703B5996A0420EC
:1000B0000142FBD001200142F8D103BD02B5186610
:1000C0001866FFF7F2FF186E186E02BD00000240BE
:1000D000000000180000070000035F00212200005C
:1000E000F4000018222000A00001001008ED00E03C
:1000F00000000000000000000000000074B24E7A12
:1001000000200420F7010010C3010010C5010010F9
:10011000C1010010C1010010C1010010C101001097
:10012000C1010010C1010010C101001065AB001039
:10013000C1010010C1010010BBAB001005AC0010E4
:10014000CD010010CD010010CD010010CD01001037
:10015000CD010010CD010010CD010010CD01001027
:10016000CD010010CD010010CD010010CD01001017
:10017000CD010010CD010010CD010010CD01001007
:10018000CD010010CD010010CD010010CD010010F7
:10019000CD010010CD010010CD010010CD010010E7
:1001A000CD010010CD010010CD010010CD010010D7
:1001B000CD010010CD010010CD010010CD010010C7
:1001C00000BE00BE00BE00BE00BE00BEEFF3058054
:1001D000103800BEF2EB8871E01005100411051014
:1001E0003402001090A31AE700201F49086006C8D7
:1001F00081F3088810471D48006800282FD10DA4FE
:100200000ECC002902D000F012F8F9E71849194A7B
:10021000002000E001C19142FCD1174988471749ED
:1002200088471749884700BEFDE701C901C29A42C5
:10023000FBD3704704110510C0000020F8260020F1
:100240003C37051000000420000004203C37051056
:10025000001004200010042000000000704709482E
:1002600004F050FB0047000008ED00E0000000D063
:10027000F8260020D896022049360010E503001029
:10028000073600105756000006005250ABB36053BB
:10029000F863041006005250861C03020864041020
:1002A000060052505422A29D1864041005005250BA
:1002B000DE65F4683C370510F8B5C0460448054BC8
:1002C00010B5834203D0044B002B00D0984710BDDB
:1002D000F8260020F8260020000000000648074904
:1002E000091A8B10C90FC91810B5491003D0044B57
:1002F000002B00D0984710BDF8260020F8260020DB
:100300000000000010B5074C2378002B09D1FFF73F
:10031000D5FF054B002B02D0044800E000BF0123AD
:10032000237010BD00280020000000006852041057
:10033000054B10B5002B03D00449054800E000BF71
:10034000FFF7CCFF10BDC0460000000004280020CD
:100350006852041070B504000D00012805D0002C6F
:1003600002D1074B9D4207D070BD054B9942F6D193
:1003700004480BF0A9FCF2E702480BF0B5FCF3E7E8
:10038000FFFF0000048A022070B582B005000E1E37
:100390000DD0941B01940F2C0ED82868012C14D07A
:1003A000002C14D02200310005F070FC0FE09142C7
:1003B000EFD00B481DF048FB002201A9280029F0CE
:1003C000F7FB2860019BAB60E7E733780370019A85
:1003D0006A602B689B1800221A7002B070BDC0467C
:1003E00068520410F0B5DE4657464E464546E0B525
:1003F000D9B005F035FE8E498E4808F00BFB03217D
:10040000082001F011F90321092001F00DF9002263
:100410000121082001F020F900220121092001F02A
:100420001BF94DAF51AB4F93834CE31F994600230B
:10043000220049464FA8FFF7A7FFFE2398463B62DC
:10044000E125AD007D627D4BBB620A2293463A7086
:100450007A6042AE46AB449300232200494644A84A
:10046000FFF792FF424632627562744BB3620B250E
:10047000357075603EA9894608233E93D024240632
:10048000F8336362F73B3F93F833FF33A3620023F3
:10049000409339A98A46F63A00213AA805F0F0FBC4
:1004A0001B233993242005F0F7FB8046012200230B
:1004B00052421B2108F010FB51464046086108F0EB
:1004C00058FD37A80021884601715946379180238D
:1004D000DB006362636135A942460A71359580236A
:1004E0001B016362636145466B46D0329B181D70E9
:1004F0000C23339380235B016362636180239B0140
:10050000636263616D46083AAD1842462A700E2355
:1005100031938023DB01636263616D46C032AD18A5
:1005200042462A700F232F9380231B02636263616C
:100530006D46B832AD1842462A7010232D9380259F
:100540006D02656265611AAD3D4AEA623D4A6A63C1
:100550003A4AEA63FE2292052A646A64AA641A97F8
:100560006E604A46AA605246EA602861696133AA11
:10057000AA612FAA6A6231AA2A622DAAAA6218AABF
:100580004146117118950AAE0222049203930F326C
:100590000292019305330093013B02321231300085
:1005A00008F0C4FD06AB42461A735A739A73069557
:1005B00018AA0892079605F053FD192001F066F875
:1005C00080239B046362204805F00EFD642005F043
:1005D0006BFD431C0ED0D0252D068026B6046E611F
:1005E000FA246400200002F0D7F9AE61200002F086
:1005F000D3F9EBE705F0E8FC05F036FD134805F00C
:10060000F3FC642005F050FD642002F0C5F91049A8
:10061000084808F0FFF90321152001F005F803212F
:10062000142001F001F806A800F05EFDFBE7C046CB
:10063000801A0600F01B00209B5204100000E040CE
:100640009A99993F000040419C520410C8520410EE
:10065000400D030010B502490120FFF77BFE10BDDD
:10066000FFFF000070B505002C681149606B05F0B4
:10067000C4F840004008FE21890505F01FF9002854
:100680000FD0606A012100F0C1FF2B689C68FC213B
:100690008905A06805F0B6F8A060642009F032FB77
:1006A000E2E7606A002100F0B1FF02232B7170BD08
:1006B0000000F04170B50600032303716EE064355D
:1006C000642009F01FFB3468E16BE06A05F095F8DF
:1006D0004000400805F062F93C4A3D4B04F032FC12
:1006E000002803D0FA23DB009D42E8DBA06900214B
:1006F00000F018FEFA20800009F004FB33681C6843
:10070000A06A05F04BF9314A324B04F08AFB04F041
:10071000B1FCA0623468E16BE06A05F06EF840005D
:10072000400805F03BF9294A294B04F00BFC00284E
:1007300014D0606A002100F069FF3368986A0021D4
:1007400000F064FF3368186A012100F05FFF33682E
:100750009869012100F0E6FD0025B4E71E4C200059
:1007600009F0D0FA33681869002100F0DBFD2000A1
:1007700009F0C8FA3368186A002100F047FF3368AF
:10078000D86AD96B05F039F84000400805F006F941
:100790000E4A0F4B04F0C6FB002814D13368586A88
:1007A000002100F033FF3368986A002100F02EFF2B
:1007B0003368186A012100F029FF336818690121A4
:1007C00000F0B0FDA6E70423337170BD9A999999A2
:1007D0009999C93F9999B93F8813000070B50500F0
:1007E000052303710368986A012100F00FFF2B684D
:1007F0001869012100F096FD2B68586C154905F029
:100800001CF8154905F019F8041C0021201C05F0FE
:1008100055F8002810D0FA20800009F073FA0E492C
:10082000201C04F0EAFF041C05F0B8F802000B00DD
:100830000A4805F009FCE8E72B68986A002100F0F7
:10084000E5FE2B681869002100F06CFD06232B7172
:1008500070BDC0460000704200007A44D8520410B7
:10086000F0B583B002AF1600DA1DD208D2006C4694
:10087000A21A954602AA9446002B0CD00024A3424B
:1008800003DD355D15550134F9E7C9B20022009248
:10089000624608F0EBF80020BD4601B0F0BD10B58F
:1008A00082B0002B02D1002002B010BDC9B20024DA
:1008B000009408F0E7F8F7E770B58CB005000BAAD4
:1008C00072231380304C703B0A212000FFF7C8FFD1
:1008D0006A6A5001801A80008018C000FA218900DD
:1008E00004F064F809F00EFA03AE202332000A2166
:1008F0002000FFF7D4FF34782600FE2C29D00DD835
:10090000012C17D0022C2ED1280008300C23009384
:100910001E4B4268002129F0F7FA14E0FF2C22D187
:100920002800083009230093194B4268002129F060
:10093000EBFA08E02800083007230093154B4268C3
:10094000002129F0E1FA2C62012E16D0A86A0CB021
:1009500070BD28000830072300930F4B4268002128
:1009600029F0D2FAEFE7280008300D2300930B4B53
:100970004268002129F0C8FAE5E700210D2068440B
:100980003BF06EFBA862E1E7F01B0020F45204107C
:1009900004530410EC520410945204101053041029
:1009A00070B5D0252D068026B6046E61FA24A40009
:1009B000200009F0A7F9AE61200009F0A3F9F0E7E3
:1009C00010B50400200000F0D6FCFA20400009F029
:1009D00099F9F7E710B50400200000F0C4FCFA20F4
:1009E000400009F08FF9F7E710B50400200000F08F
:1009F000A7FCFA2009F086F9F8E7000070B50400BA
:100A00000D00012805D0002C02D1074B9D4207D0D4
:100A100070BD054B9942F6D104480BF055F9F2E749
:100A200002480BF061F9F3E7FFFF0000088A02209B
:100A3000F8B5DE4657464E464546E0B505008368A4
:100A40009846446800261DE0200008F091FB894F7D
:100A50003900200008F072FC380005F0C5FA00F0FB
:100A6000C1FC071C844904F019FF002808D1434643
:100A70001B68DF63013609E043461B685F6401368B
:100A8000022E1AD0032E32D0002EDDD0012EF7D147
:100A9000200008F06DFB794F3900200008F04EFC73
:100AA000380005F0A1FA00F09DFC071C724904F023
:100AB000F5FE0028E0D0013EE2E7200008F058FBF8
:100AC0006F4F3900200008F039FC380005F08CFA2F
:100AD00000F088FC071C684904F0E0FE002801D003
:100AE000013ECFE743461B689F640136CAE70123F6
:100AF000AB73200008F03CFB624E3100200008F090
:100B00001DFC300005F070FAFA20800009F0FAF8B8
:100B10000023AB730133994638E05B4B5B4A3F21BE
:100B20005B4802F073FD584B584A3F21584802F089
:100B30006DFD002399464046FFF750FE0127AF7335
:100B4000200008F015FB534E3100200008F0F6FBA2
:100B5000300005F049FAFA26B600300009F0D2F864
:100B60000023AB73300009F0CDF803232B73300062
:100B700009F0C8F8AF73200008F0FAFA464E3100C9
:100B8000200008F0DBFB300005F02EFA01F0B8FF82
:100B900006000F1EC1DB414809F0B4F84046FFF7DC
:100BA00061FD200008F0E4FA3D4B9A461900200050
:100BB00008F0C4FB504605F017FAFA239B009A464A
:100BC000180009F09FF8504609F09CF84046FFF7DE
:100BD00071FD0123AB73200008F0CAFA314B9B462C
:100BE0001900200008F0AAFB584605F0FDF9504610
:100BF00009F088F80023AB73504609F083F801F040
:100C00007FFF02000B1E8EDB921BBB411000190000
:100C1000FA229200002304F0D3FD07000E004B4699
:100C2000002B86D143461B68986C1F4904F005FED3
:100C30001E4904F002FE82463800310004F078FEBE
:100C4000011C504604F0D9FD04F080FE002904DCAC
:100C500000D070E7002800D16DE743011B1A9B000C
:100C60001818C000FA21890003F0A0FE09F04AF824
:100C700061E7C04620530410000080BF3C530410BD
:100C80005C5304107C5304108C530410A8530410BC
:100C9000E05304104454041058540410B80B0000DE
:100CA00020540410305404100000704200007A44B4
:100CB000F0B5C64600B5BEB0070005684368984663
:100CC000FA20800009F01EF8B7E01022310028A8B1
:100CD00004F0DCFFD1E0CB481CF0CEFE1022310046
:100CE00022A804F0D3FFE5E00F24F7E00F24FDE095
:100CF000339A002A00D000220090002132A829F067
:100D000003F90400FAE0102231001CA804F0BEFF31
:100D1000FFE0BC481CF0B0FE1022310016A804F021
:100D2000B5FF12E1B7481CF0A7FE1022310010A851
:100D300004F0ACFF26E10F2438E10F243FE138999D
:100D40000EA829F0ABF904000AAB0893236826002B
:100D50000836B34200D140E10893A3680A93636860
:100D600009932660002363603370099AA64B9B1A8F
:100D7000022B00D837E10322A44908A829F08EF9F4
:100D8000040004AB0293036806000836B34200D1A6
:100D90002CE1029383680493636803932660002325
:100DA0006360237208980AAB984201D004F07CFF7C
:100DB00038983AAB984201D004F076FF0E9810AB09
:100DC000984201D004F070FF149816AB984201D0FD
:100DD00004F06AFF1A981CAB984201D004F064FF3B
:100DE000329834AB984201D004F05EFF209822ABD9
:100DF000984201D004F058FF269828AB984201D0C1
:100E000004F052FF2C982EAB984201D004F04CFF16
:100E1000029805F0E9F8029C404608F0BDF921006F
:100E2000404608F08BFAFA20800008F06BFF029829
:100E300004AB984201D004F037FFBB7B002B00D0FD
:100E4000DAE00122E96A2CA800F02AFB2D9A002A98
:100E500000D00022042300936D4B00212CA829F020
:100E600053F8040028AB2693036806000836B34203
:100E700000D12AE726938368289363682793266026
:100E8000002363602372279A5F4B9B1A022B00D8C2
:100E900021E703225F4926A829F000F9040022ABCC
:100EA0002093036806000836B34200D116E720936A
:100EB0008368229363682193266000236360237212
:100EC0000122A96B32A800F0EBFA2198339A81181D
:100ED000209B22ACA34200D106E7229CA14208D964
:100EE00034AC329EA64200D100E7349CA14200D827
:100EF000FEE6329920A829F0D1F804001CAB1A9321
:100F0000236826000836B34200D1FCE61A93A36892
:100F10001C9363681B9326600023636033701B9AE5
:100F2000394B9A4200D1F4E601223B491AA829F034
:100F3000B5F8040016AB1493036806000836B342F4
:100F400000D1E9E6149383681693636815932660CD
:100F5000002363602372159A2B4B9B1A072B00D832
:100F6000E0E608222D4914A829F098F8040010ABF7
:100F70000E93036806000836B34200D1D5E60E93FF
:100F80008368109363680F93266000236360237265
:100F90000122696B38A800F083FA0F98399A8118FA
:100FA0000E9B10ACA34200D1C5E6109CA14200D814
:100FB000C5E63AAC389EA64200D1BEE63A9CA142B4
:100FC00000D9BCE6399A002A00D000220090002106
:100FD00038A828F099FF0400B6E6102231000AA8CC
:100FE00004F054FEBBE607481CF046FD1022310019
:100FF00004A804F04BFECFE6FA20800008F082FE41
:101000001BE7C04674540410FFFFFF3F9C540410BC
:101010006C5404108C5404109865041090540410FF
:1010200070B582B00500406808F0A2F8264B1A6837
:1010300000929A8869468A809B796A468B71002360
:10104000CB710021686808F0A3F9002200216868CC
:1010500008F030F91D49686808F05BF968680368B2
:101060001B68002198471A49686808F052F9194826
:1010700004F0BAFF002609E0686808F079F816491C
:10108000686808F05BF9154804F0AEFF002E0CD13B
:1010900000F0D8F904000100114804F0D5FF052C38
:1010A000EADC002CE8D0E6B2F0E7686808F060F807
:1010B0000C4C2100686808F041F9200004F094FF0E
:1010C0006E73300002B070BD80550410A05404103F
:1010D000A8540410B0540410D4540410F454041050
:1010E000D054041014550410F0B589B00400002544
:1010F00007950695059504950395406808F062F8F4
:101100002000FFF78DFF8026F60007AB0193012733
:101110000097236832002A492A4808F0B5FA05AB3F
:1011200001930097236832002749284808F0ACFA59
:1011300003AB01930097236832002549254808F046
:10114000A3FA01950097002332002349234808F0B1
:101150009BFA637B012B13D0802206AB0193012302
:1011600000932300D2001E491E4808F08DFA08F0B3
:101170002FFC237B032B0FD0012008F0C3FDF8E7E1
:10118000C02204AB019301230093230012011649EE
:10119000164808F079FADFE7049808F0BFFA0698D5
:1011A00008F0BCFA079808F0B9FA059808F0B6FA02
:1011B000039808F0B3FA0E4804F016FF09B0F0BD2A
:1011C00024550410E90900102C550410D50900100D
:1011D00038550410C109001044550410A10900102D
:1011E00058550410B10C00104C550410310A001071
:1011F0006C55041010B502490120FFF7FFFB10BD2C
:10120000FFFF000070B5DE4656464D4660B583B020
:10121000824600239B460023994629E03A4B3B4AED
:101220003F213B4802F0F2F901F06AFC02000B1E7C
:1012300059DB00980199121A8B411000190004F033
:1012400077FB04F0ABFB0022324B03F0FCFD0022E5
:10125000314B03F016FE03F00DFF304904F0D7FACE
:10126000011C484604F0CEFA814601239C46E34423
:101270005B46032B3DDC53465A68012351461D0053
:1012800009688D40D0242406656216009340A3624D
:1012900065610A20002101F053FBA561D0231B06E4
:1012A0005B68F340DB07F9D501F02AFC009001915F
:1012B0000029B3DB00240025D0231B065B68F34024
:1012C000DB07B1D501220023A4185D4101200021D4
:1012D00001F036FB002D03D1EED1114B9C42EBD92E
:1012E0005346986809E0084B084A3F21084802F035
:1012F0008DF953464A46DA60986803B01CBC9146A3
:101300009A46A34670BDC0468C530410A8530410DF
:10131000E053041000003D400000E03F0000A0400A
:10132000F46500000168027901238B40002A03D094
:10133000D022120653617047D02212069361FAE759
:1013400010B504000068FFF7B7FAE0622368186A76
:10135000012806D08300C018400080B2013080B25E
:1013600010BD0120FCE710B504008068FFF74AFFBC
:101370006063012010BD10B50400C06800F003F8E0
:10138000A063012010BD70B50400051D290000698F
:1013900007F06AFC002301222900206907F0E8FC1D
:1013A00000222900206907F065FDE06070BD0000A3
:1013B00070B504000D00012805D0002C02D1074BA8
:1013C0009D4207D070BD054B9942F6D104480AF002
:1013D0007BFCF2E702480AF087FCF3E7FFFF00001E
:1013E0000C8A022070B588B004F0EEFD642004F091
:1013F0005BFE04B2002300931C22002101A804F02C
:101400003FFC6D4600260AE000232B706D46013636
:1014100001E02C700135642004F046FE04B2002E79
:1014200007D1631CF7D00A2CEED0622CF1D104480E
:1014300004E0684636F092FC03F01CFE08B070BD74
:10144000000080BF70B588B004F0BEFD642004F0D9
:101450002BFE04B2002300931C22002101A804F0FB
:101460000FFC6D4600260AE000232B706D46013606
:1014700001E02C700135642004F016FE04B2002E49
:1014800008D1631CF7D00A2CEED0622CF1D10120D8
:10149000404202E0684636F067FC08B070BD0000CC
:1014A000F0B5C64600B5B4B006008846170002ACD9
:1014B00012A81CF029FC4B4B23640025B023E550F7
:1014C0000433E5540133E5540333E5500433E55068
:1014D0000433E5500433E550434A536802930C3B10
:1014E0001B689268E250029B0C3B18682018002190
:1014F0001CF09AFB3D4B0293143323643C4B636016
:10150000A560E56025616561A561E5610AA80BF04C
:101510000BFB384B6360102363620EABA362E56282
:101520003023E55403A912A81CF07EFB02980C3866
:101530000368E218304BD1680B4004210B43D360A1
:101540000368E3185F60404604F028FA02000B00CD
:10155000200027F039FC33000833336075603572A2
:10156000A269002A39D006998A422AD9079BD11A42
:10157000002200910021300028F0C6FC1B4B029392
:10158000143312931B4B03930C980EAB984201D06B
:1015900004F08AFB02AC164B03930AA80AF094FCF1
:1015A000114A536802930C3B1B689268E2500D4B42
:1015B000236412A81CF0FAFB300034B004BC90463F
:1015C000F0BD079BC91A7268002A00D00022009162
:1015D0000021300028F098FCD0E70CA9300028F05A
:1015E00029FBCBE7848F0410409904105C99041008
:1015F0000C9A0410E0980410FBFEFFFF10B502499E
:101600000120FFF7D5FE10BDFFFF00000123026897
:101610009340002904D0D022120653610171704713
:10162000D02212069361F9E710B58300084A944668
:1016300063441C6840226240C0241440802252014E
:1016400013431C60C000034B9C466044416010BDC6
:1016500004C001400040014080000B4B9C466044A8
:1016600000290DD00823002A0CD00422134302685D
:1016700053400C22134080225201104303607047F4
:101680000023F0E70022F1E704C0014010B5012378
:101690008340D0221206936293610521FFF7C4FFB5
:1016A00010BD70B50500002404E02000FFF7EEFF38
:1016B0006D0801341D2C02D8EB07F9D5F5E770BD94
:1016C000034B1B6802201840431E9841C0B270476C
:1016D00000C00640EFF3108072B6034B1B68002B6E
:1016E000FBD0BFF35F8F70472C0100D0BFF35F8F3B
:1016F000024B00221A6080F3108870472C0100D042
:10170000F8B506000C001500FFF7E4FFE308F71832
:10171000F15C07222240012393400B4205D1DBB24A
:101720000B433B70FFF7E2FFF8BD2100280002F0F9
:1017300007F8F0B583B00600019114001F00FFF711
:10174000C9FFBC420ED8E308F518F35C072121401D
:1017500001228A401A4201D00134F2E7D2B21A4380
:101760002A7001E001246442FFF7C0FF002C02DB75
:10177000200003B0F0BD019B002BF9D0089801F0C8
:10178000DFFF000000231F2B08D8054A9A1892009B
:10179000BFF35F8F002111600133F4E77047C0464B
:1017A00040000034054A1078431CDBB21370172B3D
:1017B00002D9130010221A707047C046141B002073
:1017C00000B583B00100044B00931F231822034887
:1017D000FFF7AFFF03B000BD88550410B08E0220A4
:1017E000074B9B68103080001950BFF35F8FBFF329
:1017F0005F8F044B0021196082F310887047C04648
:1018000000ED00E0240100D010B5091A0B1F0A4AB0
:1018100094466144094A914208D8DA0706D45B101D
:101820005B055B0D0648184380B210BD054B064AA8
:10183000A321064801F0EAFEFC070000FE0F0000AD
:1018400000E0FFFFA4550410E0570410D455041025
:1018500010B5091A04394C08090B08D14905490D7E
:10186000064A11430180064B2343438010BD054BBC
:10187000054AAB21054801F0C9FEC04600F0FFFF54
:1018800000F8FFFF0C560410EC570410D455041058
:1018900001238340034A10681840431E9841C0B298
:1018A0007047C04600E100E0002904D0034B1860F7
:1018B000034B18607047034B1860FBE780E200E0C1
:1018C00000E100E080E100E010B501238340180052
:1018D000FFF7EAFF10BD000001238340014A1360B7
:1018E0007047C04600E200E0024B9B681030800069
:1018F000C058704700ED00E010B5FFF7F5FF002875
:1019000005D0054BC01A2F2803D8012010BD002098
:10191000FCE70020FAE7C046181B002070B5040061
:101920000D00EFF3108672B60C4B1B68002BFBD03A
:10193000BFF35F8F2000FFF7D7FF094B984201D01C
:10194000A84205D1320029002000FFF749FF70BDF1
:10195000044B054A8621054801F058FE240100D0B9
:10196000CD0100101C560410C4570410D4550410A7
:10197000F0B5DE4657464E464546E0B589B081464D
:1019800001911500EFF3108A72B6744B1B68002B9F
:10199000FBD0BFF35F8F724B0027DF57002F40DB78
:1019A0007C00E419A4006F4824180622A2566C4B50
:1019B0001A706D4B9A684B4610339B00D35898466B
:1019C0001E001B1A2F2B38D9684B98452FD105AE16
:1019D000674B33807B009B46D8198000614B98464B
:1019E000404402306349FFF70FFF7080624BB380C1
:1019F000FF23B371F571019BB3605F44BF0047449F
:101A00000ECE0EC701231C43A0465246414648460F
:101A1000FFF7E6FE09B03CBC90469946A246AB46AD
:101A2000F0BD564B564AD721564801F0EFFD564BB4
:101A3000534ADE21534801F0E9FDC04340440C21E4
:101A400002F0B4FF002912D101239E43B3463300B4
:101A50000026DA79AA4211D90621595600290CDB51
:101A60004A00521892001E003E4B9B18F1E7474B6C
:101A7000434AEA21434801F0C9FD1E00002E3AD036
:101A800005AB434A1A80813A5A800623F3560293E3
:101A9000002B17DA3F4805AB9B469880029A9A7153
:101AA000DD71019A0792301D2100FFF7ADFEB08075
:101AB000B7717B00DB199B002A4FFF185B4607CBF1
:101AC00007C7A2E77800C0198000264BC018043071
:101AD000321DB388D90A1C2907D15905491502318D
:101AE00049005118FFF790FED5E72B4B2B4AB12147
:101AF000244801F08BFD05AE1D4B33807B00029323
:101B0000D8198000174A9046020042440392901C64
:101B10001849FFF779FE7080039A101D5946FFF7A8
:101B200073FEB0801E4B5A464146521A52415343EF
:101B30001B0DB371F571019AB260029B9C4667441C
:101B4000BF0047440ECE0EC7114B5A461380813B4F
:101B5000538001231C43A04657E7C046240100D010
:101B6000BD930220181B002000ED00E0CD01001005
:101B700000A1FFFF481B002001BDFFFF54560410C9
:101B800014580410D45504107C560410A4560410A4
:101B90000148000001BD000018570410045804104B
:101BA000AAAA0000F0B5CE46474680B583B006002D
:101BB0000D00EFF3108872B6564B1B68002BFBD05C
:101BC000BFF35F8F544B9A6834001034A300D7588A
:101BD000524B9F4207D0AF4200D198E00197504B43
:101BE000FB1A2F2B09D9424639003000FFF7F8FDC8
:101BF00003B00CBC90469946F0BD3000FFF748FE9C
:101C0000814600213000FFF75FFEBFF35F8FEFF3E7
:101C10000581002901D08C4211D10123019C9C43F4
:101C20000022A368AB4212D00622A256002A0DDB86
:101C300053009B189B002200394CE418F1E7362131
:101C4000384B394AFF31394801F0E0FC2200AB4201
:101C500056D106256557002D38DB6B005B199A00BD
:101C60002F4B9B189A68A260DA79E27106229A5685
:101C7000A2719B795BB2002B0FDA2D48A0806B001C
:101C80005B199B00264AD3182A4A1178997115705E
:101C900049463000FFF718FEA5E7201D6B005B19D1
:101CA0009B001F4A9B181A1D9B88D90A1C2907D123
:101CB00059054915023149005118FFF7A5FDDDE727
:101CC0001D4B1E4AB121194801F0A0FC002912D178
:101CD000002A0ED0FF239371194B9380154A137875
:101CE000A371184B0E49641A644163431B0D1370B2
:101CF000CEE70A4FF2E7201D1349FFF7A9FDC7E71A
:101D00006A21124B084AFF31084801F07FFC034F5B
:101D100069E7C046240100D000ED00E0CD010010CD
:101D2000181B0020305704102C580410D4550410F0
:101D300001BD0000BD930220185704100458041080
:101D400001BDFFFFAAAA0000521B00206457041027
:101D5000F8B5012101432E4BCB1A2F2B28D8EFF3D6
:101D60000583002B2BD0EFF3108572B6294A126839
:101D7000002AFBD0BFF35F8F274A0400244EA41B28
:101D800064416243120D54B2244A92689B00D258B7
:101D90008A421BD00022032A32D853009B189B0092
:101DA0001B49CB189B795BB2A3421FD00132F2E7EB
:101DB000C7211B4B1B4A49001B4801F027FC9221FD
:101DC0001A4B184AFF31184801F020FC134A926858
:101DD0001749D150174B1A7882711C70BFF35F8F6F
:101DE0000C4B00221A6085F31088F8BD0E005300DA
:101DF000991889007118FF278F710F4A8A80E9E7C7
:101E0000D1210E4B074A4900074801F0FFFBC046AD
:101E1000181B0020240100D0AAAA000000ED00E059
:101E20006C57041040580410D455041094570410F3
:101E3000CD010010BD93022001BDFFFFA05704108B
:101E40000022044B02E0044902C30132072AFAD9F6
:101E50007047C04600E400E08080808000B583B019
:101E60000100064B0093052300220548FFF761FCA3
:101E7000002801DB1F23181A03B000BDA857041067
:101E8000C2930220024B9C46614489000160704766
:101E90004000003410B50400FFF784FC010020006E
:101EA000FFF7F0FFFF232371BFF35F8F10BD10B565
:101EB0000400FFF777FC01002000FFF7E3FFFF239A
:101EC000237100236371BFF35F8F10BD034B9C46EA
:101ED000614489000160BFF35F8F704740000034A8
:101EE00010B504000120FFF76BFC01002000FFF794
:101EF000EDFF10BD70B505000C00080000F0FEFEFF
:101F00000949200000F03EFEFFF74CFC074B9C46C1
:101F10006044800068602C75D0231B061B786B75AD
:101F2000A400034BE55070BD39220010400000347E
:101F3000709302200A4B1A68EFF3108172B613688F
:101F4000002BFCD0BFF35F8F054B1B68BFF35F8F87
:101F500000221A6081F3108840BF002000217047E2
:101F60008C93022010B5002922D003681B7B994274
:101F70001ED8174B9C466144090183689C46614406
:101F80000C684968002A19D003681B7B9A4215D84F
:101F900083680F488446624412019A181068536897
:101FA000020001208B4201D80ED00020C0B210BD2B
:101FB000084B094A3C21094801F028FB054B064A19
:101FC0003C21064801F022FBA242EFD8EDE7C046D3
:101FD000FFFFFF0F64590410CC5B04103459041048
:101FE00010B500291ED0037B99421BD84B005B180B
:101FF000033B0468A4466344002919D0002A1DD07D
:10200000914221D0002A25D0047BA24222D8046824
:1020100050008018033820188170197800291FD1CA
:102020001A7010BD104B114A6821114801F0EEFAE8
:10203000104B114A6F310E4801F0E8FA0F4B0E4A6F
:1020400070210B4801F0E2FA0D4B0B4A7121084850
:1020500001F0DCFA044B054A6821054801F0D6FA84
:1020600041701A70DDE7C046885904108C5B04107B
:10207000A4590410E8590410985B0410F459041092
:10208000005A041070B506000D001400002914D089
:10209000002A14D0806873689847002806D0220070
:1020A00029003000FFF79CFF280007E02A002100EC
:1020B0003000FFF795FF200000E0100070BD080021
:1020C000FCE70000F0B583B00500009201930AAB75
:1020D0001C780BAB1F78002C26D003685A7B9442E7
:1020E00007D10123002B19D1002C3BD1200003B0D4
:1020F000F0BD002C0CD01A7B944209D81A686300FA
:102100001B19033BD3189B78002BEBD00123E9E785
:102110003E4B3F4A68213F4801F078FA3E4B3F4A28
:1021200067213F4801F072FA03689C7B002CDBD0EA
:1021300012D01A7B94420FD862001219033A196820
:102140008C46624451789973002900D1D9730023D9
:10215000937053701370C7E72C4B2D4A68212D489C
:1021600001F054FA002C3AD02B681B7B9C4236D8E5
:102170002C4BE3181B01AA6894466344009A1A602A
:10218000019A5A60089A9A60099ADA602E68002CBF
:102190002BD030D0337B9C422DD863001B19033BDE
:1021A00032689446634400229A705A701A70717BA8
:1021B00022003000FFF766FF7073844200D095E77D
:1021C000287D009A019B00F025FD061E01D0002FFE
:1021D00017D00C9B002B00D188E71E7086E7124BAE
:1021E000124A3C210E4801F011FA114B114AA52167
:1021F000084801F00BFA054B054A6821054801F033
:1022000005FA2868210000F03DFFE2E78859041034
:102210008C5B0410A4590410185A0410045C0410B8
:1022200034590410FFFFFF0F64590410CC5B0410F5
:1022300030590410AC5B0410F0B5DE4657464E46EC
:102240004546E0B58BB00990002308938200B54B5A
:10225000D658370052E0B44BB44A3F21B44801F09D
:10226000D5F9B44BB44A3C21B44801F0CFF9002968
:1022700001D1002869D10021404600F0F9FEA042BA
:1022800019D12A686B6806920793AB689846EB6889
:102290009A464346002B14D0002C18D03B681B7B79
:1022A0009C4214D8631EFA68D35C08931B0218433F
:1022B0003861002015E0A24BA24A8E219F4801F010
:1022C000A5F9A14B9F4A92219C4801F09FF9994B97
:1022D0009E4A4121994801F099F900239A4698466F
:1022E00000207B68BFF35F8F00221A6086F310889E
:1022F0004346002B32D1002800D10CE100F000FC55
:1023000002000B1EA7DB00200021069007917868D1
:10231000EFF3108672B601680029FCD0BFF35F8F1F
:10232000396888464C7B002CD7D09AD0097B8C42E8
:1023300097D8874965182D01B9688C466544286887
:102340006968801A9941002991DD2A686B680998AB
:1023500000F060FC00239A469846C2E7089B1B02E7
:102360002343994651461800C04705000E007A687D
:10237000EFF3108B72B6136859424B41D9B2002B60
:10238000F9D1BFF35F8F002E1EDB002E46DD3B69C7
:10239000002B47D04B456DD100F0B2FB02000B1E65
:1023A0006EDB52197341002B70DB002B72DB0021B6
:1023B00004910131039102945146019141460091EB
:1023C0003800FFF77FFE4CE03B69002BDDD04B452A
:1023D00014D1069A079B521BB341002B14DB002B30
:1023E00016DB0021049101310391029451460191C1
:1023F000414600913800FFF765FE32E0554B514AE7
:10240000A1214E4801F002F901225242524BE6E767
:10241000454B464A3F21464801F0F8F8002E01D1CD
:10242000002DB4D13B68002C50D05A7B944237D158
:10243000012100294AD1DA7B002A4DD19A7B002A5A
:1024400003D1DA7B002A5AD19C73DC73002C5CD058
:102450003B681B7B9C4258D8FA68013C135D0133F2
:10246000135500233B617A68BFF35F8F13608BF3D2
:10247000108843E7374B334AA421304801F0C6F8AF
:10248000294B2A4A3F212A4801F0C0F80122524232
:10249000314B8AE7244B254A3F21254801F0B6F805
:1024A000002C0DD01A7B94420AD862001219033A0C
:1024B0001868844662449278002ABAD00121B8E7AD
:1024C000264B274A6821274801F0A0F8264B274AC7
:1024D000F621244801F09AF8002A0AD0197B8A4292
:1024E00007D851008A18033A19688C466244547020
:1024F000A4E71A4B1A4A68211A4801F087F81C4BC6
:102500001A4AFB21174801F081F80A4B0F4A412172
:102510000A4801F07BF80BB03CBC90469946A246B5
:10252000AB46F0BD709302208C530410745B041012
:10253000E053041064590410CC5B041034590410A7
:10254000405A04101C5C0410585A0410D85B041044
:10255000FFFFFF0F645A0410FFFFFF7F885904102C
:102560008C5B0410A4590410A05A0410BC5B041026
:10257000C45A041010B50C4B5B68002B04D00A2120
:102580000A48FFF77FFC10BD074C2300084A1021C2
:10259000206800F07DFC032000F0A6FA0321200053
:1025A000FFF7A8FCEBE7C046601B00208C930220DD
:1025B000651F001010B5064B5B68002B01D0044866
:1025C00010BD044B044A5E21044801F01FF8C046C8
:1025D000601B0020D85A0410EC5B0410345904101E
:1025E000F0B5DE4657464E464546E0B58BB08046D0
:1025F00016001F00149B9A46159B994616AB1B7834
:102600009B461F2302AA9446634400221A702CE0C2
:10261000002809D042461268127B904204D8421E1C
:102620004146C9688A5C42E0404B414A41214148E9
:1026300000F0ECFF0798002B6FD05B46002B6CD0AE
:102640004946D04704000D0003000B4300D16BE066
:10265000002940DB00F054FA06000F1E4BDB361950
:102660006F41002F4DDB002F4FDB43465A68EFF3DD
:10267000108472B6136859424B41D9B20791002BAE
:10268000F8D1BFF35F8F1F3302AA944663440493CB
:102690000023039302934B46019353460093320069
:1026A0003B004046FFF70EFD031EB1D1020041463C
:1026B0004968BFF35F8F00250D6084F31088002BFD
:1026C00029D01F2302A98C4663441B78002BB1D16B
:1026D00012021043AFE7361BAF41002F07DB002F7C
:1026E000C3DA154B154A3F21154800F08FFF01262C
:1026F0007642144FF3E7104B104A3F21104800F088
:1027000085FF012676420F4FADE70B4B0B4A3F2169
:102710000B4800F07BFF012040420BB03CBC9046D0
:102720009946A246AB46F0BD0798F6E764590410F7
:10273000D85B0410345904108C530410745B0410DB
:10274000E0530410FFFFFF7FF8B50400002900D11B
:1027500062E04268EFF3108572B613685842434155
:10276000D8B2002BF9D1BFF35F8FCBB22268567B72
:10277000B3421BD10120002848D0206988422BD0C9
:10278000090AC9B2002B2ED02068007B83422AD8C8
:10279000581EE668305C88422BD000206368BFF387
:1027A0005F8F00221A6085F31088F8BD002B0DD0D2
:1027B000167BB3420AD85E00F618033E1768BC4683
:1027C0006644B678002ED6D00120D4E7134B144AC5
:1027D0006821144800F01AFF2C21134B134AFF31D3
:1027E000134800F013FF134B134A4121104800F027
:1027F0000DFF1900100000F045FC0028CED19921F2
:102800000E4B0A4A49000A4800F000FF23698B4238
:10281000C4D100232361C1E70020C6E78859041012
:102820008C5B0410A4590410FC5A0410385C04108A
:102830003459041064590410D85B0410205B041050
:10284000407D7047F0B587B006000F00EFF30583B9
:10285000002B1FD106246442E517A4197D418D4247
:1028600002D803D1844201D900240025002D14DBB5
:102870000494059500F044F902000B1E13DBA41A22
:102880009D41002D17DC14D03000390000F044F9D0
:1028900007B0F0BD234800F053FF234B234A3F21EC
:1028A000234800F0B3FE204B204A3F21204800F08F
:1028B000ADFE002CE8D0FFF77DFE002302930193CC
:1028C0001C4B0093049A059BFFF78AFE002818DA38
:1028D000DAE7002300E00023002BD5D1164B1A685D
:1028E000EFF3108172B61368002BFCD0BFF35F8F3B
:1028F000114B1B68BFF35F8F00221A6081F31088B1
:1029000020BF0499059A0D4B5B6A9A42E3D80B48A5
:10291000806A884203D29A42DBD00123DCE701239C
:10292000DAE7C046245B04108C530410745B041077
:10293000E0530410351F00108C9302200040054026
:1029400070B504000D0000F0DBF802000B1E0ADB7E
:10295000200029008018594100290ADB00290CDBDE
:10296000FFF770FF70BD084B084A3F21084800F090
:102970004DFE012040420749F0E7034B034A3F2147
:10298000034800F043FEC0468C530410745B0410EF
:10299000E0530410FFFFFF7F10B5FA2292000023DE
:1029A000002102F00DFFFFF7CBFF10BD70B584B022
:1029B00005000C00EFF30583002B12D0244B5B6A5B
:1029C000994209D8224A926A824208D2994201D099
:1029D000012002E0002000E0002004B070BD0120D2
:1029E000FBE7FFF7E7FD002302930193194B0093E8
:1029F0002A002300FFF7F4FD061E11DC144B5B6A6E
:102A00009C4209D8124A926AAA4207D29C4201D03B
:102A10000120E2E70020E0E70020DEE70120DCE71C
:102A200020BFFFF7C7FD3100FFF78EFE084B5B6A42
:102A30009C4209D8064A926AAA4207D29C4201D017
:102A40000120CAE70020C8E70020C6E70120C4E74C
:102A500000400540351F001070B5EFF305801038B9
:102A6000EFF3108472B61A4B1B68002BFBD0BFF338
:102A70005F8F01221300834016494B6316490B6098
:102A8000164909780D00C5402A4214D0114A556AEA
:102A90008200134E9259954206D38200114D52592D
:102AA00099430E4B197007E00A4A031D9B00995881
:102AB0009950002200E00022BFF35F8F044B0021F9
:102AC000196084F31088002A00D0904770BDC0467A
:102AD000280100D0004005403C700540C193022011
:102AE00098930220988D022010B50100024A0348F5
:102AF000FEF706FE10BDC046585C0410BC930220D1
:102B0000044B5B6A034A906A1900536A9942F9D1EF
:102B10007047C04600400540074B5B6A8B4204D2B9
:102B2000054B5B6AFAE7044B5B6A8B4203D1024BAD
:102B30009B6A8342F7D370470040054070B504009C
:102B40000D00FFF7DDFF02000B00200029008018B8
:102B500059418B4202D804D1824202D9012040421D
:102B6000C117002902DBFFF7D7FF70BD024B034AF4
:102B70003F21034800F04AFD8C530410DC5C041034
:102B8000E053041070B504000D00EFF3108672B628
:102B90001B4B1B68002BFBD0BFF35F8F002D1CD09D
:102BA0002000FEF7A1FE174B83420BD01900200036
:102BB000FEF7B4FE01212000FEF786FE0123A340AC
:102BC000114A1360A400114BE550BFF35F8F0C4B0B
:102BD00000221A6086F3108870BDA2000B4B002102
:102BE000D1500122A2400A490B7893430B7005494A
:102BF0002000FEF7D7FF00212000FEF765FEE4E786
:102C0000280100D0592A001038600540988D022014
:102C1000C1930220F0B5DE4600B584B00400150073
:102C200001921E000293FFF76BFF03958E4202D8BC
:102C30004ED185424CD9EFF3108B72B6274B1B68EF
:102C4000002BFBD0BFF35F8F254A17780125A540E5
:102C5000EBB23B431370234B5D63221D920001993D
:102C6000D150A2002049029850501B6A2B4212D129
:102C70001C4B1B6C2B4208D00020BFF35F8F174BFF
:102C800000221A608BF3108823E0184B184AC521E4
:102C9000184800F0BBFCFFF733FF8E4214D802D176
:102CA000039B834210D80E4B1B78BB420ED00D4BBA
:102CB0001D625D631F2004400123A3400E4A136080
:102CC000074B1F701E38D8E70020D6E70120D4E755
:102CD000012004B004BC9346F0BDC046280100D0DA
:102CE000C193022000400540989302207C5C0410B0
:102CF000F45C0410A05C041080E200E010B5EFF377
:102D0000108472B60A4B1B68002BFBD0BFF35F8F99
:102D100001238340074A136207490A789A430A70DD
:102D2000BFF35F8F024B00221A6084F3108810BD3E
:102D3000280100D000400540C193022010B50029B1
:102D40001ED0037B99421BD84B005B18033B0468E1
:102D5000A4466344002919D0002A1DD0914221D0F5
:102D6000002A25D0047BA24222D804685000801893
:102D7000033820188170197800291FD11A7010BDEE
:102D8000104B114A6821114800F040FC104B114AC9
:102D90006F310E4800F03AFC0F4B0E4A70210B4881
:102DA00000F034FC0D4B0B4A7121084800F02EFC5A
:102DB000044B054A6821054800F028FC41701A7050
:102DC000DDE7C04688590410B85D0410A45904100A
:102DD000E8590410C45D0410F4590410005A04109A
:102DE00070B506000D001400002914D0002A14D07C
:102DF000806873689847002806D0220029003000B8
:102E0000FFF79CFF280007E02A0021003000FFF7B1
:102E100095FF200000E0100070BD0800FCE70000F6
:102E200010B50023437301338373037BC373012302
:102E3000027B9A4214D9002B0CD0027B934209D812
:102E40005A00D218033A01688C4662440133DBB25F
:102E50005370EDE70B4B0C4A68210C4800F0D6FB91
:102E6000002A09D0924207D8016853009A18033A01
:102E70008A180023537010BD024B034A682103488F
:102E800000F0C4FB88590410B85D0410A459041064
:102E900010B5017342608360FFF7C2FF10BD0000F0
:102EA00070B50400081E00D170BD002934D0237B0A
:102EB000994231D84B005B18033B22689446634427
:102EC0005A78002AF0D02DD0237B9A422AD853007A
:102ED0009B18033B21688C4663445D780021597040
:102EE000002825D0237B984222D843001B18033B9F
:102EF00021688C4663440021597001002000FFF7CF
:102F00006FFF060029002000FFF7CAFF0200310012
:102F10002000FFF765FFC7E7084B094A6821094809
:102F200000F074FB054B064A6821064800F06EFB72
:102F3000024B034A6821034800F068FB88590410DB
:102F4000B85D0410A459041070B505000C001600FB
:102F500000292FD034D0037B994231D84B005B1825
:102F6000033B0268944663445A78002A2ED19A782B
:102F7000002A31D11978FFF793FF0300002E0AD001
:102F8000EA7B002A2ED1AA7B002A03D1EA7B002A01
:102F90003BD1AC73EC73002B3DD1002C4FD02B7B7D
:102FA0009C424CD82B6861000C19033C1C1900236F
:102FB000637070BD254B264A3821264800F026FB59
:102FC000254B264A6821264800F020FB254B204A45
:102FD0003A21204800F01AFB234B1D4A3B211D4893
:102FE00000F014FB002A0AD0297B8A4207D851003E
:102FF0008A18033A29688C4662445470C3E7164B1A
:10300000164A6821164800F001FB184B104A42216D
:10301000104800F0FBFA002B0BD02A7B934208D813
:1030200043001B18033B2A689446634400229A70AD
:10303000B3E7094B094A6821094800F0E7FA064B53
:10304000064A6821064800F0E1FAC046105D041007
:10305000D85D0410185D041088590410B85D041080
:10306000A45904104C5D0410745D0410C45A04107B
:1030700070B504000A00457B2900FFF765FF607307
:10308000280070BD70B50400002966D0437B8B42D8
:103090000ED0002911D0037B99420ED84B005B184B
:1030A000033B0268D0188378002B0CD1002055E038
:1030B0000121FFF7DDFF012050E0294B294A68215B
:1030C000294800F0A3FA002B1FD0227B93421CD882
:1030D00025685A00D318033BEA18EB5C8B421AD0E0
:1030E000002B1BD0227B934218D85A00D318033BE5
:1030F0002268D21853788B4216D0002BF0D11B4B8C
:103100001B4A6B211B4800F081FA154B154A6821B8
:10311000154800F07BFA4378137007E0104B114A12
:103120006821114800F072FA4378537000238370CD
:10313000437001222000FFF707FF0200617B8142FC
:1031400005D02000FFF74CFE6073012006E00A4B1B
:10315000074A7121074800F059FA002070BDC046A7
:1031600088590410B85D0410A4590410A057041025
:10317000EC5D0410185D0410985D0410F8B5DE468F
:1031800057464E464546E0B505000F0092461E00E4
:103190000A9B9E4250D3330E994636020A9A002368
:1031A0003000494601F040FC80466C006419A400E0
:1031B0002F4B9C4664446368834200D260602B1F9F
:1031C000DBB29B46012B3DD9C0239B0123438022C8
:1031D00012011A60AB00274A9958002907D050699C
:1031E00001F0E4FB431C5800C0180338FDD25346DD
:1031F0005A0123685A40E0231A4080235B0123438D
:103200001A605A46012A28D980239B012343802231
:1032100012011A604346636042460023300049466B
:1032200001F002FCAD00134B585101203CBC90460C
:103230009946A246AB46F8BD0F4B104A33211048C1
:1032400000F0E4F9012FBFD1C0239B0123430322E7
:103250001A60A368DB07FCD5C9E72168794003221F
:103260000A401A60A3680122BA401A42FAD0CBE79A
:1032700000800040B48E0220045E0410545E0410EE
:10328000185E041030B583B00C2000F013F9FEF77F
:1032900017FA00280DD00023092B05D899002D4AD4
:1032A0002D4888500133F7E72A4B2C4A5A6203B065
:1032B00030BD2B4B00229A6700F06EF9294B01229A
:1032C0001A60274B5B6C012BFBD1274B03221A6042
:1032D000234B9B6B012BFBD1013300930433234A17
:1032E0000121234800F054F805230093214A0121CD
:1032F000214800F04DF8214B0093002202210420C8
:10330000FFF73CFF1E4D00952B00002201210520F8
:10331000FFF734FF104C0094230000220021072007
:10332000FFF72CFF00942300002200210820FFF764
:1033300025FF0A4B00932300002200210920FFF7FC
:103340001DFF00952B00002200210620FFF716FF2D
:10335000ADE7C046B48E0220006CDC021BB7000053
:10336000008000403CB0004030B00040002F685961
:1033700000800240008C864700C00240001BB7005E
:10338000405973078000014BC0587047B48E02202B
:10339000F0B5C64600B504000E0090461D00384842
:1033A00001F004FB0700374A4244374B9A423AD8AF
:1033B0000100404601F0FAFA0200103A98235B003F
:1033C0009A4236D86B1E062B39D8069B013B062B3A
:1033D00035D843461A09BA4237D32D04069B1F033A
:1033E0002F432368002B36DB284B9C4244D080259A
:1033F0006D01274B1D60274B1D60274A92682B00EB
:103400009343FAD12660A060221DC0239B01134381
:1034100021221A602268002AFCDAE76008221A607A
:1034200004BC9046F0BD1D4B1D4A11211D4800F003
:10343000EDF81D4B1A4A19211A4800F0E7F81B4B0A
:10344000174A1C21174800F0E1F8194B144A2321B0
:10345000144800F0DBF822683F231340B342C3D185
:10346000A3681B051B0D8342BED1E368EE22D20286
:103470001340BB42B8D1D3E78025AD01B9E7C046C0
:10348000001BB70080E84BD380F8A93200C002408F
:1034900000E0004000F0004000C00040645E041006
:1034A000805F0410C45E0410FC5E0410185F0410FA
:1034B000645F041080239B000343014AD36270477A
:1034C00000800540024B1A68024B5A607047C046A4
:1034D000609302200080054010B50200164B80204A
:1034E000C0051860154B1648186000290AD0154B06
:1034F000E021C9041960002A09D1124B802212066A
:103500001A6010BD0C4BE021C9041960F3E75001AB
:10351000801A8000801800010B4B186080235B0428
:10352000984202D3084B094A1A60FFF7CBFF054BBC
:103530008022D2051A60E4E700B00540082001406F
:10354000FCFF010000A0054060930220FFFFFF0088
:1035500010B5030010000C4A8024E4051460002B11
:103560000DD001221343094A094CD461094C5C4037
:103570001462516293620021FFF7AEFF10BD034B4E
:103580000022DA61F7E7C04600B005400080054040
:10359000D3C007B02D3FF84F064BAA2212011A6084
:1035A0002F22DA60044B054A1A60024B5B68002B3D
:1035B000FBDA7047004002400060024000B0FA00B1
:1035C00000BEFDE703000A4A1268002A08D0084A34
:1035D0001068C318074A9A4206D3054A1360704719
:1035E000034A05491160F2E701204042F7E7C0466F
:1035F0005C8F022000000420D89602200020704733
:1036000001204042704710B5FFF7DAFF10B582B0D5
:103610000C001900002A0CD0084B002A0BD0019294
:10362000009323000200064802F00EFD0120FFF780
:10363000C7FF044BF1E7034AF1E7C0468C5F041073
:103640009C5F0410C898041070B52B4B2B4A1A606D
:103650002B4B2C4A1A602C4B9A682A4B9343FAD175
:103660002A4C2B4B9C4202D208CC9847F9E7FFF733
:1036700009FE234B274A1A60234B9B68DB43DB017F
:10368000FAD1254B40229A675A671A67DA66234CAB
:1036900009E0234B234A87212348FFF7B7FF200087
:1036A000FEF7F8FB0834214B9C4209D22368002B1B
:1036B000F5D0012BEDD12000FEF7F9FB0834F2E73D
:1036C0001B4CA1681B4DC022280002F0DFFAA56048
:1036D000EFF30583002B00D000BEFEF753F8FEF792
:1036E000AFFBFEF747FF144C144B9C4202D208CCB0
:1036F0009847F9E770BDC04600E00040BFCDFBFE33
:1037000000F00040FE7F3C0000C00040B8260020D2
:10371000C8260020FFFFFF0100F00140B026002076
:10372000CC5F04103C600410EC5F0410B82600204D
:1037300000ED00E000000020C8260020F826002050
:103740000FB400B583B0084802F04EFC049B002B78
:1037500007D005A90191180002F056FC034802F0B9
:1037600043FC0120FFF72CFF286004103860041090
:103770009A4200D288547047704710B5002802D092
:103780000B684968984710BD010000200A6813784B
:10379000303BDBB2092B08D883001B185B00501CA0
:1037A00008601078C0183038F0E77047F0B5DE4692
:1037B00057464E464546E0B583B093461F000C9BE6
:1037C0009A460D9C0E9B99460F9B9B0703D0B846CB
:1037D0000F00060022E00192A34688464E46B946F5
:1037E0000700B44207D2551C4B4641462020B8473B
:1037F00001342A00F5E73D004F465C46019B9B469D
:10380000B1464646B84637002E0007E0013C551C3D
:103810005346185D43463900B0472A00002CF5D1C5
:1038200035003E0047460F9B9B0707D4100003B0AE
:103830003CBC90469946A246AB46F0BDB0464E46CB
:10384000B9462F005D46531BB342EFD2541C4B4682
:1038500041462020B8472200F5E7F0B5CE4647465E
:1038600080B585B0944698460C9D0D9C0EAB1B7898
:103870009946109A119B129EB7071BD4002B08D0B3
:10388000F70706D54F46002F02D10C37374200D03C
:10389000013B944208D21F2C06D830272F55013403
:1038A000F7E730272F550134F70703D59C4201D2A3
:1038B0001F2CF6D9F70615D5770505D4002C03D0B3
:1038C000944224D09C4222D00F9A102A2BD00F9AD7
:1038D000102A30D00F9A022A35D01F2C02D830225D
:1038E0002A5501341F2C05D84A46002A31D02D22F2
:1038F0002A5501340396029301940095434662468B
:10390000FFF754FF05B00CBC90469946F0BD621E0F
:10391000012C06D00F9F102F01D01400D4E7023CD9
:10392000D2E71400D0E7B206D1D41F2CCFD878222A
:103930002A550134D1E7B206CCD51F2CCAD858225B
:103940002A550134C9E71F2CC7D860322A550134E3
:10395000C3E7720703D52B222A550134CAE7320781
:10396000C8D520222A550134C4E7F0B5DE465746B3
:103970004E464546E0B593B081468A460892099383
:103980001CAB10CB1B789B461E9D219B9846002CA0
:1039900003D1102342469A4390468023DB004646DB
:1039A0001E4042461A4212D0002C22D000260EE0C1
:1039B0003033D9B2771C0AAB99552900200000F0AA
:1039C000F5FFAC4216D31F2F14D83E000400290087
:1039D000200000F0EBFFCBB2092BE9D9424692065A
:1039E00005D54121C918C9B20A39C9B2E2E7612136
:1039F000F8E7270043460693209B05931F9B0493FB
:103A000003955B46029301970AAB0093099B089AC2
:103A100051464846FFF721FF13B03CBC90469946FB
:103A2000A246AB46F0BDF0B5DE4657464E4645468B
:103A3000E0B595B0089009910A920B931E9E1F9CC9
:103A400020AB1B789B46229B9946239D269B9A463A
:103A50003300234303D1103352469A4392468023C6
:103A6000DB0057461F4052461A4219D03300234309
:103A70002DD0002714E03033DAB27B1C98460CAB13
:103A8000DA554A462B003000210000F0CDFFA54258
:103A90001FD819D043461F2B1BD8474606000C00E1
:103AA0004A462B003000210000F0BEFFD3B2092BA4
:103AB000E1D95246920605D54122D218D2B20A3A2D
:103AC000D2B2DAE76122F8E7B145E3D901E0002399
:103AD000984653460693259B0593249B04934B4697
:103AE00003935B460293434601930CAB00930B9BFD
:103AF0000A9A09990898FFF7B0FE15B03CBC9046A9
:103B00009946A246AB46F0BDF0B5DE4657464E4656
:103B10004546E0B591B083468A460C9298461A9C79
:103B200008941B9D099522002B002000290001F01C
:103B30000EFA002800D0E5E001225242D34B2000CB
:103B4000290001F0FFF9002800D0DBE001225242F9
:103B5000CF4B2000290001F0DFF9002800D0D1E090
:103B600000220023089D2800099E310001F0D4F9AD
:103B7000002800D0DDE0089809990690079180237D
:103B8000DB001E9A1A400D921E9A1A4201D106239A
:103B90001C930698079904000D000A0006000243D2
:103BA00000D1CDE0080D4005400DBA4CA44660445C
:103BB0000A03120BB84B13431F0001F0DBF9B74A9D
:103BC000B74B01F05EF9B74AB74B01F033F9040087
:103BD0000D000022B54B3000390001F022F9B44A43
:103BE000B44B01F04EF902000B002000290001F057
:103BF00021F901F0D7F9814601F0BCF904000D006C
:103C0000AD4AAE4B01F03DF90022AD4B01F012F987
:103C100001F0C8F90600AB4AAB4B2000290001F0C7
:103C200030F904000D00300001F0A4F9A74AA84BB8
:103C300001F027F902000B002000290001F0F1F843
:103C400004000D0002000B0001F01BF90A900B911B
:103C5000A04BF31800261F0522002B00200029008E
:103C600001F0E8F80E900F9122002B000020802137
:103C7000C90501F0D6F804000D000022964B0A9801
:103C80000B9901F0E0F80022944B01F0D3F8020008
:103C90000B000A980B9901F0D6F80022904B01F026
:103CA000C9F802000B000A980B9901F0CCF8020049
:103CB0000B002000290001F0BDF802000B000E9857
:103CC0000F9901F0C0F80022734B01F0B3F83200F5
:103CD0003B0001F0D6F806000F0004000D00069A24
:103CE000079B01F02FF900282CD001235B429C4652
:103CF000E1440022794B3000390001F0A4F80400BF
:103D00000D001FE01E9B04931D9B03931C9B0293BD
:103D1000089A099B0092019343460C9A51465846D3
:103D200000F0F8F811B03CBC90469946A246AB466C
:103D3000F0BD069580231B069C46664407961EE749
:103D4000002399464B466333C62B1FD804261E9B7F
:103D50001B0527D52B00234310D0624A624B0698DF
:103D6000079901F0E7F8002800D183E000225F4BBB
:103D70000698079901F0D0F800287BD01C9B4B4592
:103D800006DD4A46981A431E1C9303E00526DEE72B
:103D900000231C938023DB001E9A1A431E920026E8
:103DA000002399461D9B9E426ED29F1B02231E9AA2
:103DB0001A400A921E9A134202D0002E00D0002709
:103DC0004B46002B07D022002B000698079901F0E4
:103DD0003AF806900791002200230898099901F00B
:103DE0009BF8002800D085E0414B1E9A13400493B5
:103DF00003971C9B0293069B079C009301944346E8
:103E00000C9A5146584600F085F8002E00D189E7FB
:103E10001E9B9B067AD54525441C4346020051460D
:103E20002800D8474B46DA179B18534005220592C5
:103E3000013E0496002203920A3202924A46D00FB3
:103E4000019000934346220051465846FFF78DFDEE
:103E50000A9B002B00D165E702005F460C9E1D9D6A
:103E6000931BAB4254D2541C434651462020B847C2
:103E70002200F5E71C9B002B94D00D9B002B91D0CA
:103E80001C9B013B1C938DE700278FE7FFFFEF7F13
:103E9000FFFFEFFF01FCFFFF0000F03FFB799F50A9
:103EA0001344D33FB3C8608B288AC63F0000F83F55
:103EB00061436F63A787D23F71A379094F930A408B
:103EC0000000E03F1655B5BBB16B0240EF39FAFE7A
:103ED000422EE63FFF03000000002C40000024407B
:103EE000000018402D431CEBE2361A3F80842E411F
:103EF000FFF7FFFF069C079D220029008020000697
:103F0000844661440B00069207936DE7652583E7BD
:103F1000100007E7F0B5DE4657464E464546E0B589
:103F200095B00690079193469946209F1E9A1F9B35
:103F30001000190001F00BF8002831D10122524283
:103F4000BF4B1E981F9900F0E7FF002837D10122D0
:103F50005242BC4B1E981F9900F0F4FF00283DD13F
:103F60000022B94B1E981F9900F0ECFF002850D199
:103F70000022B64B1E981F9900F0CEFF002848D1B2
:103F8000002200231E981F9900F0C6FF002850D180
:103F900000239846229B5B0500D4B6E0002458E03D
:103FA000229B0393219B029303230193A84B00932D
:103FB0004B465A4607990698FFF7F8FB0EE1229BFD
:103FC0000393219B029304230193A24B00934B463E
:103FD0005A4607990698FFF7E9FBFFE00423229A67
:103FE0001A4022990B4210D09B4B002A0FD004227A
:103FF0002299039121990291019200934B465A46CE
:1040000007990698FFF7D2FBE8E0944BEDE703220F
:10401000EEE7229B0493219B039302971E9B1F9C18
:10402000009301944B465A4607990698FFF76CFD9A
:10403000D4E01E9A1F9B0020002100F0F2FE1E908B
:104040001F9101239846A5E70CAB30221A55013F7A
:1040500001341F2C01D8092FF6D81E981F9900F0A3
:10406000A1FF050000F086FF02000B001E981F99BB
:1040700000F0D7FEFA007A4B9B181A685B680A9228
:104080000B9300F0FEFE0890099100F0AFFF0600D0
:1040900000F06CFF02000B000898099900F0C1FEC7
:1040A0000890099100226F4B00F04CFF00282ED0A1
:1040B0000136300000F05AFF02000B000A980B99FD
:1040C00000F030FF002801D001350026002F2CD150
:1040D000280000F04FFF02000B001E981F9900F00F
:1040E000A0FE06000F0000225E4B00F015FF002826
:1040F00042D100225B4B3000390000F023FF002842
:104100003AD1EB0738D5013536E0062746E70022DD
:10411000544B0898099900F0FFFE0028D6D1002ED4
:1041200001D0F307D2D50136D0E7AA461F2C11D80B
:10413000013F0A21300000F039FC651C30310CAB26
:1041400019550A21300000F031FC092E26D906004D
:104150002C00EBE7554604E00CAA302111551F0056
:1041600001341F2C02D87B1E002FF5D11F2C03D841
:104170000CAB2E221A5501341F2C14D80A2128000A
:1041800000F0ECFB661C30310CAB19550A212800FD
:1041900000F0E4FB051E05D03400EDE72B0055468A
:1041A0001C00DEE734000323229A1340012B1CD0AD
:1041B0001F2C06D84346002B32D00CAB2D221A55AB
:1041C0000134229B0393219B029301940CAB009337
:1041D0004B465A4607990698FFF7E8FA15B03CBCDB
:1041E00090469946A246AB46F0BD219B002B13D0CA
:1041F0004346002B02D10C3313420FD0219B013BCD
:104200002193190003E00CAB30221A5501348C4283
:10421000CED21F2CF7D9CBE72199F8E72199F6E701
:10422000229B5B0704D50CAB2B221A550134C8E73F
:10423000229B1B07C5D50CAB20221A550134C0E7C1
:10424000FFFFEFFFFFFFEF7F65CDCD4165CDCDC116
:10425000586004105C600410506004104C6004103E
:10426000486204100000E03FF0B5DE4657464E4677
:104270004546E0B593B082468B469046119300299F
:1042800000D1ECE200275546119B1878002800D198
:10429000E8E2252809D07C1C43463A005946A84745
:1042A000119B013311932700EEE701331193002492
:1042B0001DE00B00303BDBB2092B37D92A293AD05D
:1042C00000230A93119B1A782E2A44D000239A4681
:1042D000119A1378683BD9B2122900D980E08B007B
:1042E000CB49CB589F4601231C4301321192119AAE
:1042F00011780B00203BD8B21028DAD88300C548CB
:10430000C3589F4602231C4301321192EFE7042356
:104310001C4301321192EAE708231C430132119237
:10432000E5E710231C4301321192E0E711A8FFF7E3
:104330002BFA0A90C6E71C9B1A1D1C9218680028CD
:1043400004DB0A90119B01331193BBE702231C434A
:1043500043420A93F6E78022D20014435A1C11927A
:104360005A781300303BDBB2092B04D92A2A07D034
:1043700000239A46ACE711A8FFF706FA8246A7E7A2
:104380001C9B1A1D1C921868002804DB8246119B96
:10439000013311939CE70020F8E780235B0023435F
:1043A000511C119152786C2A01D01C0018E0C023D6
:1043B0009B001C430131119112E080232343511CC7
:1043C00011915278682A01D01C0009E0C0231C43D7
:1043D0000131119104E080235B001C4301321192F2
:1043E000119B18780300253BDAB2532A00D92CE23E
:1043F0009300894AD3589F4680239B001C43013277
:104400001192EDE780235B001C4301321192E7E734
:10441000782809D0582838D06F2838D0622838D06A
:1044200010239C430A2600E01026582833D0692820
:1044300003D0642801D00C229443630501D50122E6
:10444000944369282AD0642828D0A30500D59FE08A
:10445000E30500D5B8E0630600D4CAE01C9A111D3C
:104460001C911168FF220A4005940A9B049353464D
:104470000393029600230193009243463A00594663
:104480002800FFF772FA070027E01026CDE708267C
:10449000CBE70226C9E720221443C8E7A30520D4AE
:1044A000E30550D4630666D51C9A111D1C91116852
:1044B000FF220A40D317D118594005940A9B049350
:1044C000534603930296D20F0192009143463A005D
:1044D00059462800FFF749FA0700119B0133119351
:1044E000D2E61C9BDA1D07218A43110008311C917A
:1044F000116853689C46DB170C930D930C9A0D9B27
:10450000100048400E90624653400F930E980F994A
:104510000C9A0D9B801A99410E900F9108940A9B5A
:104520000793534606930496002305936346DA0FD8
:1045300002920090019143463A0059462800FFF745
:1045400072FA0700C9E71C9A111D1C911268D31753
:10455000D118594005940A9B04935346039302963D
:10456000D20F0192009143463A0059462800FFF7C6
:10457000FCF90700B1E7230605D51C9A111D1C9113
:104580000023D25E96E71C9A111D1C91126891E7D8
:104590001C9BDA1D07218A43110008311C910894E5
:1045A0000A9B0793534606930496002305930293B0
:1045B000136854680093019443463A005946280012
:1045C000FFF731FA070088E71C9A111D1C9105942A
:1045D0000A9B0493534603930296002301931368A6
:1045E000009343463A0059462800FFF7BEF90700FA
:1045F00073E7230606D51C9A111D1C91126812043C
:10460000120C31E71C9A111D1C9112682CE7C04650
:1046100064600410B0600410F460041046281AD0DE
:104620001C9B0733072293431A0008321C92049400
:104630000A9A0392524602925C681B6800930194A6
:1046400043463A0059462800FFF764FC0700119BD7
:104650000133119318E620231C43E1E7672801D0BA
:10466000472802D180231B011C43452801D047283D
:1046700001D120231C431C9B0733072293431A00BC
:1046800008321C9204940A9A0392524602925C6881
:104690001B680093019443463A0059462800FFF7EF
:1046A00033FA0700119B01331193EDE502231A0041
:1046B0002240924623421FD001241C9B1A1D1C92AB
:1046C0007A1C9146187843463A005946A847534603
:1046D000002B16D1119B013311934F46D4E5561C84
:1046E000434659462020B847230032005C1C9D42B7
:1046F000F5D83D001700E0E701233A002F000A9D9E
:10470000F4E74A46A9460A9D06E0571C4346594627
:104710002020C84734003A00661CA542F5D84D4613
:104720009146D7E71C9B1A1D1C921B68994653465D
:10473000002B00D1013B4E4601E0013613003278D8
:10474000002A02D05A1E002BF7D14B46F21A1092C3
:104750008023DB0026001E401C4203D0524501D9B5
:104760005346109302231A0022400B92234205D095
:104770003A0037004C46A946554620E03A00109BC7
:104780005F46B3462E0006E0551C43463900202004
:10479000B04723002A005C1C0A999942F4D83500DE
:1047A0005E46BB46109437004C46A946554606E087
:1047B0001D000134561C43465946C8473200207834
:1047C000002804D0002FF4D06B1E002DF0D117006C
:1047D0004D460B9B002B03D1119B0133119353E5E5
:1047E0000A9F109B06E0561C434659462020A847C6
:1047F000230032005C1C9F42F5D81700ECE7212310
:104800001C431C9B1A1D1C921B68009305940823D3
:1048100004935346039310230293002301934346CA
:104820003A0059462800FFF7A0F80700119B013312
:10483000119329E57C1C43463A0059462520A84798
:10484000119B0133119327001EE57C1C43463A005F
:104850005946A847119B01331193270014E50B4BD0
:104860009A460FE5AA4647450DD343465A1E43468E
:1048700059460020D047380013B03CBC90469946BA
:10488000A246AB46F0BD3A00F1E7C04679370010CA
:104890000EB410B585B0010007AC08CC039401221A
:1048A000009452420348FFF7DFFC05B010BC08BC7F
:1048B00003B018477137001000B583B000931300A0
:1048C0000A0001000248FFF7CFFC03B000BDC0465C
:1048D0007137001000B585B002900391012100935B
:1048E00013004A4202A90248FFF7BEFC05B000BD12
:1048F0007B37001001480421014B1847901B002012
:104900002549001010B5010018231B8814221088B7
:10491000984710BD10B5010018231B881622108877
:10492000984710BDF0B5C64600B507000E0000253B
:104930000123984600E00135B5420AD2AC003C198B
:104940002068FFF7DFFF20600028F4D1002398469D
:10495000F1E7404604BC9046F0BD0000124A936F58
:104960009B0815D29066D166002905D0FFE7FFE7C6
:10497000FFE7516F106F704704B580210906C21719
:104980005140002800D0C84340F0E6FB002104BDA0
:10499000F0B5146E556E576F166FFFF7E3FF146690
:1049A000556657671667F0BD000000D0114A936F37
:1049B0009B0813D210665166002905D0FFE7FFE778
:1049C000FFE7516F106F704704B5002801D0002039
:1049D000C04340F0C1FB002104BDC046F0B5146ED9
:1049E000556E576F166FFFF7E5FF146655665767EC
:1049F0001667F0BD000000D094464A4A926F9208B4
:104A0000624601D228E0C046F0B5464E346E756E5F
:104A1000776F366F00F020F89446424A1466556668
:104A2000576716676246F0BD94463E4A926F9208F9
:104A3000624601D254E0C046F0B53A4E346E756E0F
:104A4000776F366F00F04CF89446364A1466556618
:104A5000576716676246F0BD002B24DB11D0002992
:104A60003EDA00B5C943404200D1013100F038F8C8
:104A7000C943404200D10131DB43524200D10133EE
:104A800000BD002AEBD1002801D1002905D000206B
:104A9000C90FC90701D1C043410800B540F034FB3C
:104AA0000022002300BD00B500290ADBDB4352428F
:104AB00000D1013300F014F8C943404200D1013164
:104AC00000BDC943404200D10131DB43524200D115
:104AD000013300F005F8DB43524200D1013300BD41
:104AE000002923D1002B18D1002A0CD0BC460D4F31
:104AF00038667A6600210023FFE7FFE7FFE77A6F59
:104B0000386F67467047002801D00748010000B59C
:104B100040F0FAFA0022002300BD02000B00002042
:104B200000217047000000D0FFFFFFFF002B00D0E6
:104B3000BFE0130C28D1002AE7D080B4114F3966AA
:104B40007A66FFE7FFE730B4040C7B6F396F1B0414
:104B500023433B667A66FFE7FFE7FFE7C04684B280
:104B60007B6F3D6F1B0423433B667A66FFE7FFE7DD
:104B7000C04600232C042D0C7A6F386F0019694150
:104B8000B0BC7047000000D0F0B594460025140E6C
:104B900001D112020835140F01D112010435940F0E
:104BA00001D192000235D40F01D152000135D40B4E
:104BB0000134254F7C66254C3C660E0C93B2FFE712
:104BC000FFE7FFE73C6F6643360C7703BE4673434F
:104BD000DF0B5B04C01AB941130C7343DB18C91A0D
:104BE000CE086643360CB64493B273431F0F1B01C5
:104BF000C01AB941130C73431F0B1B05C01AB941EE
:104C0000860D8F023E436643360C092D24DB520A83
:104C10007243801A7703460A6643360C16235B1BE1
:104C2000DE40DF40BF1964466643821B7046043590
:104C300006330100D940A840C01900D30131A24277
:104C400006D20023F0BD0000000000D0FFFFFFFFF0
:104C5000121B0130F3D3F1E709277F1BFE406446A6
:104C6000A2B27243801A00D20139220C7243130C93
:104C70001204821A99410B00704604351337010063
:104C8000F940A840801900D30131002B02D1A24283
:104C90000AD2F0BD013000D30131121BFAD2013B20
:104CA000F8D1A24200D2F0BD013000D30131121B75
:104CB000F7E7F0B51C0C00D080E00CB400251C0A0E
:104CC00004D11B02160E3343120208351C0B04D10B
:104CD0001B01160F3343120104359C0B04D19B00BA
:104CE000960F334392000235DC0B02D192185B41E0
:104CF00001351C00971864410134464F7C66464CD0
:104D00003C660E0CFFE7FFE7FFE7C0463C6F6643DB
:104D1000360C7703BE4697B27743C01B00D20139E9
:104D2000C01B00D201399FB27743C91BC91B170CA6
:104D300077437E04FF0B801BB941CE086643360CD7
:104D40000C2D33DBB644120B1F053A431B0B97B2F5
:104D50007743C01B00D201399FB27743C91B170CA0
:104D600077433E043F0C801BB941860D8F023E43C2
:104D7000664329277F1BFE400C3D7746AF40BF1995
:104D800030BCA2B2ABB272437343801A9941220C79
:104D90007243130C1204801A994102000B00013770
:104DA000001BA941F9D2781E0021F0BD0C277F1B02
:104DB000FE4077467F0BAF40FF19E0E700245D1C03
:104DC00007D0144F7D663966FFE7FFE7FFE7FFE78F
:104DD0003C6F95B29EB265436643401BB141150CD2
:104DE0001E0C6543664336042F0C3E432D04401BC6
:104DF000B141994204D202000B0020000021F0BD15
:104E000001D19042F7D3801A994101349942F2D3EB
:104E1000F6E70000000000D0FFFFFFFF48404140E0
:104E2000484018B41B4B5B68FC46019308BD04DF87
:104E30008F51001018B4174B1B68FC46019308BD36
:104E400000DF995100109446134A926F920809D2DC
:104E5000624618B40F4BDB68FC46019308BD0CDFBB
:104E6000515400100C4AF0B5146E556E576F166F02
:104E70006246FFF7EEFF084A1466556657671667E5
:104E8000F0BD18B4034B9B68FC46019308BD08DFD6
:104E9000F5520010C4930220000000D0FFB550402E
:104EA0004240504059404B40594000E0FFB5154F3B
:104EB0004C00640D03D0BC4204D10C0314D8002074
:104EC000090D09055C00640D03D0BC4204D11C032C
:104ED0000AD800221B0D1B0501264B4009D44B406C
:104EE00003D58B4200D18242FFBD9942FCD1904252
:104EF000FFBD0B43DB1803431343F5D0C9434918E7
:104F0000FFBD0000FF07000000B5FFF7CFFF01D095
:104F1000002000BD012000BD00B5FFF7C7FF8041A4
:104F200000BDC04600B5FFF7C1FF01D9002000BD9C
:104F3000012000BD00B5FFF7B1FF01D9002000BD81
:104F4000012000BD00B5FFF7A9FF804100BD012091
:104F500040054A00121804D85A00121801D800203F
:104F60007047012070470020704700000021002892
:104F700005D17047C1174840401AFAD0C90713B588
:104F8000064B1B6898470CBC441CA2401005120B32
:104F90000349091B09051943114310BD88930220D9
:104FA0001F04000010B54C00620D8023D218DB00F6
:104FB000D21A5B057E2A10DD9E3A13DACC1709035C
:104FC000490819435242D140640001341532202A65
:104FD00005DAD0400843604310BD002010BD0846EC
:104FE000604310BDC80FC018013810BD18B4044B81
:104FF0005B6AFC46019308BD24DF015600100000E7
:10500000C493022018B4044BDB6DFC46019308BD29
:105010005CDF0D5700100000C4930220C94211D379
:1050200000B549004908002200F018F8002904D40E
:10503000002240428A41114600BD8021090600201D
:1050400000BD000018B4044BDB6EFC46019308BDA4
:105050006CDF0F5600100000C493022018B4044BFC
:105060009B6FFC46019308BD78DF2B5600100000B3
:10507000C493022018B4044BDB6FFC46019308BDB7
:105080007CDF995600100000C493022070B51323F2
:105090001C78012C0CD0012C13DC022C02DC1F4AE2
:1050A0001F4B9A641F48FFF72DFC1F4B186070BD03
:1050B00000231F2BEFD899001848194A8850013354
:1050C000F7E71A48FFF726FC05001948FFF722FC0E
:1050D000023803789B007F2B19DD802229001048BD
:1050E00000F0D4FD022CD8D1124B1A88B5231B0234
:1050F0009A4209D1104B1A88104B9A4204D1104B96
:105100001A88104B9A42C8D00020FEF719FB0E4BAC
:105110000E4A32210E48FEF779FAC046555100106A
:10512000C49302204C3300008893022053440000B3
:105130005346000054380000D838000049460000AB
:105140009C38000059460000986204103063041037
:10515000EC62041007B56046002800D100BE01884B
:105160000A0A0230DF2AFAD1C9B2820804D30288BF
:1051700040880004104300E00068024A5050039049
:1051800007BD0000C49302200FB403BC0CBCF0B5F3
:105190000124E407634000E0F0B50C0DCF0F661E5C
:1051A0003605891B640503D3C943404200D301314E
:1051B000640D03D0661CF60A07D0E41B00207F00B4
:1051C000791C89078912803C24031D0DDF0F6E1E98
:1051D00036059B1B6D0503D3DB43524200D30133DD
:1051E0006D0D03D06E1CF60A07D0ED1B00227F0068
:1051F0007B1C9B079B12803D2D032F1B661B58D4E5
:10520000A446202E46DA20371400BC401D00BD40C5
:10521000F24033412A4380185941CB0F05D0C9438E
:10522000C043002264425041514162464D0D28D195
:105230000D0D07D100281FD0241940414941013AE2
:105240000D0DF9D0640006D3013000D30131002CDC
:1052500001D140084000013A0BD4941CE40A04D167
:1052600012051144DB071944F0BDD907204B19433F
:1052700000E0D9070020F0BD0029DDD1002CDBD1F2
:10528000F0BD0132C6074008CD0728434908002E6B
:10529000E1D0D9E73C2E29DA203E40371400BC404B
:1052A00000D00124F24014431A00BB401C43D31722
:1052B000ACE7AC46202F08DA20360400B4400D00DD
:1052C000B540F84039412843A5E73C2F0CDA203F90
:1052D00040360400B44000D00124F84004430800E4
:1052E000B1400C43C117EAE710001900002494E70D
:1052F0000000F07FF0B50C0D661E3605891BE60A2E
:105300006405640D02D0651CED0A04D00020012163
:105310000905803C2403A4461C0D671E3F05DB1BCA
:10532000E70A6405640D02D0651CED0A04D0002272
:1053300001231B05803C24037740644497B484B266
:1053400096B27443070C7E43150C6F4380B26843DA
:10535000361802D3012000043F183004350C001920
:105360007D41844688B29AB250430C0C62431F0CB4
:105370007C438EB27E43921902D301263604A419CF
:105380001604170C3618674101BC81B29AB251431A
:10539000040C62431B0C5C4380B25843121802D3C6
:1053A0000120000424181004130C401863412D1828
:1053B0005E410020474106BC88B293B258430C0CB2
:1053C0006343120C544389B251435B1802D3012149
:1053D0000904641819041A0C091862416D18564121
:1053E0000020474118BCF902720D1143F0026A0D0A
:1053F0001043ED020A0D03D16D1940414941013BB3
:10540000124E9B1B7600B3420ED26D0007D30130C3
:10541000002671416646354301D1400840001B0516
:10542000C918E4072144F0BD0BDA013306D101307D
:1054300004D101314F0D01D04908F2E7E107002006
:10544000F0BD013631050020EBE70000FF0300004E
:10545000F0B51C0D671E3F05DB1BE70A6405640DF4
:1054600002D0661CF60A04D0002201231B05803CF2
:105470002403D0252D060026F6432E661E096E66EF
:10548000CE0FF619B44649004F0D02D07E1CF60A25
:1054900003D000200021403F3F033E1BB600B44430
:1054A000013F7F05C91B49082E6F013676089C0213
:1054B000950D25437543ED137543AD1301356D10FF
:1054C000F603761B0CB4CC02450D2C43A2B2B3B24A
:1054D0005A43270C7B43350C6F43A4B26C431B1912
:1054E00002D3012424043F191C041D0CA4187D417F
:1054F00024196D41009A91B2ACB26143170C7C4300
:105500002B0C5F4392B25A43A41802D30122120417
:10551000BF182204230C52187B41019C6C431B19B9
:10552000520ED9010A434401A01A81B2B2B25143CA
:1055300003145A43360C734387B27743D617D219F4
:1055400000277E4136049B191704160C7F185E4114
:105550007316ED18F301002680337541A90F06D1AB
:105560006400690AE8055B0A184309D22FE00422A7
:10557000944480337541A90AA8059B0A184326D391
:10558000404149412404009A019B0D005543641B8E
:105590004343E41A95B286B27543170C7E43030C5D
:1055A0005F4392B25A43B61802D301221204BF18C5
:1055B0003204330C52197B4152429C41002C02D4DC
:1055C0000022013051414008CA071043490802B087
:1055D0006246D7079210084BD218084B9A4203D262
:1055E00012058918C919F0BD0020002A01DC390014
:1055F000F0BD01331905F5E7FD030000FE070000CB
:10560000002200B5203200F010F8080000BD002292
:1056100000B500F00CF8CA179A4200D100BDD8437B
:105620000121C907414000BD00220B150AD410B565
:10563000944600F0A7F81414013400DA0021CB17C7
:10564000144C20470020002170476244343A0CD4A7
:105650000C2A07DA04009140904052422032D44094
:10566000214310BDD843D94310BD203207D40C4686
:105670009440524220321141D040204310BD0800D6
:10568000C917203203D452422032104110BD1800F5
:10569000190010BD4B5600104A00520D144BD21A7F
:1056A00013DDFF2A1EDAD205CB0FDB071A43C30036
:1056B000400F0903490A084310435B0001D301D09E
:1056C000013070474308FBD2704702D0C80FC007B3
:1056D00070470A0312130132F8D1420F072AF5D19D
:1056E000012200E0FF22C80F00028018C0057047A9
:1056F0008003000000210A00002104E000210A00CC
:10570000C11704E00022002306E0C0460022CB17A8
:1057100058405940C01A994130B5184CA21A002976
:1057200003D1010010D00020203A4C1512D104D230
:10573000013A001849414C0DFAD3114CA24204D24F
:1057400012058918DB07C91830BDD243520D00205D
:105750000021F5E703D4013A00184941FBD50B328B
:105760004405C00A4D052843C90A640003D000243B
:1057700060416141E1E7E0D34408F8E7320400000A
:10578000FE0700000A0DCC0F531E1B05C91A520557
:1057900003D3C943404200D30131520D03D0531CFF
:1057A000DB0A07D0121B00206400611C89078912E4
:1057B000803A1203014BD21A70470000FF03000029
:1057C00051434343C9188C46110C83B24B4310B468
:1057D000040C614392B280B2504362431C041B0C20
:1057E000001910BC59411304120CC01851416144F6
:1057F0007047000048404140484000239C46114B00
:105800005B68184700239C460E4B1B6818470E4ADE
:10581000936F9B0804D200239C460A4BDB68184711
:10582000F0B5146E556E576F166FFFF7F4FF064A0A
:105830001466556657671667F0BD00239C46014BFA
:105840009B681847C4940220000000D007B5484068
:105850004140484001E0C04607B54200120E03D067
:10586000FF2A03D1420218D8C00DC0054A00120E0B
:1058700003D0FF2A03D14A020FD8C90DC90501225E
:10588000414005D4414001D5814207BD884207BD52
:105890000143491801D0C043001807BD00B5FFF708
:1058A000DBFF01D0002000BD012000BD00B5FFF7E7
:1058B000D3FF01D9002000BD012000BD00B5FFF7D6
:1058C000C5FF804100BD01231B064200D21804D849
:1058D0004A00D21801D80020704701207047491AA9
:1058E000002807D108467047C10FC90700D54042BC
:1058F000002817D0F44603B40B4B1B68984706BC2E
:1059000081409E384042803107D20B0607D04900C3
:10591000490AC0051043084360470130F8E7490AC7
:105920008902F5E77047000088930220054A104776
:10593000C2179142FAD0044BDB6DFC4618475CDF7E
:105940003B5B0010E9580010C4940220C04211D300
:1059500000B540004008002100F016F8002904D4EA
:10596000002240428A41114600BD802109060020E4
:1059700000BD0000034BDB6EFC4618476CDF6D5B1F
:1059800000100000C4940220034B9B6FFC46184794
:1059900078DF795B00100000C4940220034BDB6FBA
:1059A000FC4618477CDF155C00100000C494022000
:1059B00070B513231D782A48FEF7ACFF0400012DB3
:1059C00011D0012D09DDA31E1B789B007F2B40DD2C
:1059D00080222100234800F059F92348FEF792FF66
:1059E000224B186070BD542201001E4800F04EF991
:1059F0001F4B1A881F4B9A421CD1A7239B011A8860
:105A00001D4B9A4216D11D4B1A881D4B9A4211D13B
:105A10001C4B1A8894239B019A420BD11A4B1A886B
:105A20001A4B9A4206D11A4B1A681A4B9A4201D164
:105A3000152307E01848FDF783FE99001748094A27
:105A4000885001331F2BF8D9144A064B1A62DA61C9
:105A5000B7E7134B134A42211348FDF7D7FDC04661
:105A600053460000C49402204C3300008893022067
:105A7000EE290000C40F0000C20D0000962B0000AC
:105A8000C0B50000182B0000CC2A000010B50000A3
:105A9000FC2C000051ED8764C8980410F55A0010E2
:105AA00044630410B86304107863041010B5040054
:105AB000C20DFF210B00134011420FD07F3B10D4C9
:105AC0001722D31A002B0BDD163A9A401300013A25
:105AD000002800DA14185842204001E0C00FC00727
